:020000041C00DE
:100800006F0000106F00C00F6F00800F6F00400F6F
:100810006F00000F6F00C00E6F00800E6F00400E63
:100820006F00000E6F00C00D6F00800D6F00400D57
:100830006F00000D6F00C00C6F00800C6F00400C4B
:100840006F00000C6F00C00B6F00800B6F00400B3F
:100850006F00000B6F00C00A6F00800A6F00400A33
:100860006F00000A6F00C0096F0080096F00400927
:100870006F0000096F00C0086F0080086F0040081B
:1008800097010100938101BB17510100130181A859
:1008900017050000130505F7136515007310553093
:1008A00097020100938202D5170301001303C325A9
:1008B00023A002009102E3ED62FE1705000013057C
:1008C000E56AEF00C067EF00807202454C00014608
:1008D000EFD0607E6F006067828000000000000043
:1008E0000000000000000000000000000000000008
:1008F00000000000000000000000000000000000F8
:10090000130181F806C216C41AC61EC822CA26CC14
:100910002ACE2ED032D236D43AD63ED842DA46DC6F
:100920004ADECEC0D2C2D6C4DAC6DEC8E2CAE6CC3F
:10093000EACEEED0F2D2F6D4FAD6FED8F3220030C8
:1009400096DA2111F322007C7323107CF323207CA0
:10095000732E407CF32E507C732F607C16C21AC419
:100960001EC672C876CA7ACC9702010083A282059D
:1009700023A0220073252034F32510341356F501EB
:10098000630A06002EC017010100032161C5EFC0F4
:10099000C0613DA091052EC0AD42631955001701FD
:1009A00001000321E1C3EFB0205919A8F32220343C
:1009B00073231034F3230030D5BFF3222034F5BF66
:1009C00017030100032303000321030082427390F5
:1009D000123492422243B243424ED24E624F73903F
:1009E000027C7310137C7390237C73104E7C739085
:1009F0005E7C73106F7C6101D6527390023092401E
:100A0000A2423243C2435244E244724582551256D6
:100A1000A2563257C2575258E25872598649164A5E
:100A2000A64A364BC64B564CE64C764D865D165E56
:100A3000A65E365FC65F1301810773002030130086
:100A4000000013000000130000001300000013005A
:100A5000000013000000130000001300000013004A
:100A6000000013000000130000001300000013003A
:100A7000000013000000130000001300000013002A
:100A8000000013000000130000001300000013001A
:100A9000000013000000130000001300000013000A
:100AA00000001300000013000000130000001300FA
:100AB00000001300000013000000130000001300EA
:100AC00000001300000013000000130000001300DA
:100AD00000001300000013000000130000001300CA
:100AE00000001300000013000000130000001300BA
:100AF00000001300000013000000130000000100BC
:100B0000130181F806C216C41AC61EC822CA26CC12
:100B10002ACE2ED032D236D43AD63ED842DA46DC6D
:100B20004ADECEC0D2C2D6C4DAC6DEC8E2CAE6CC3D
:100B3000EACEEED0F2D2F6D4FAD6FED8F3220030C6
:100B400096DA2111F322007C7323107CF323207C9E
:100B5000732E407CF32E507C732F607C16C21AC417
:100B60001EC672C876CA7ACC9702010083A282E5BB
:100B700023A0220073252034F32510342EC0170142
:100B800001000321E1A5EFB04028E30B05E2EFB03F
:100B9000A03A170301000323E3E20321030082428A
:100BA0007390123492422243B243424ED24E624F6D
:100BB0007390027C7310137C7390237C73104E7CB3
:100BC00073905E7C73106F7C6101D652739002301B
:100BD0009240A2423243C2435244E244724582559B
:100BE0001256A2563257C2575258E2587259864985
:100BF000164AA64A364BC64B564CE64C764D865D99
:100C0000165EA65E365FC65F130181077300203053
:100C10001300000013000000130000001300000088
:100C20001300000013000000130000001300000078
:100C30001300000013000000130000001300000068
:100C40001300000013000000130000001300000058
:100C50001300000013000000130000001300000048
:100C60001300000013000000130000001300000038
:100C70001300000013000000130000001300000028
:100C80001300000013000000130000001300000018
:100C90001300000013000000130000001300000008
:100CA00013000000130000001300000013000000F8
:100CB00013000000130000001300000013000000E8
:100CC00013000000130000001300000013000000D8
:100CD00013000000130000001300000013000000C8
:100CE00013000000130000001300000013000000B8
:100CF00013000000130000001300000013000000A8
:100D000017010100032101CC02418240924222439B
:100D1000B243424ED24E624F7390027C7310137CEA
:100D20007390237C73104E7C73905E7C73106F7C89
:100D300061013243C2435244E24472458255125625
:100D4000A2563257C2575258E25872598649164A2B
:100D5000A64A364BC64B564CE64C764D865D165E23
:100D6000A65E365FC65FD652A10273900230A242E1
:100D7000130181078280130000001300000013009C
:100D80000000130000001300000013000000130017
:100D90000000130000001300000013000000130007
:100DA00000001300000013000000130000001300F7
:100DB00000001300000013000000130000001300E7
:100DC00000001300000013000000130000001300D7
:100DD00000001300000013000000130000001300C7
:100DE00000001300000013000000130000001300B7
:100DF00000001300000013000000130000000100B9
:100E0000F322003093F272FF130380181203B3E24F
:100E10006200711523205500130585FA10C12115B4
:100E200023200500930260006387020071152320D0
:100E30000500FD12D5BF71150CC1828000000000B5
:100E400000000000B7A7101A03A547821375F50F1D
:100E5000131725009387412EBA979C4399CB4111D4
:100E600006C69387412EBA979C438297B2404101B0
:100E700082808280C1676372F5029307F00F1307C7
:100E8000000263ECA702B7F7001C938747183E9552
:100E9000034505003305A7408280B7070001636A58
:100EA000F502B7F7001C9387471861813E9503450B
:100EB000050021473305A7408280B7F7001C9387C0
:100EC000471821813E950345050061473305A7403A
:100ED0008280B7F7001C9387471841813E950345F0
:100EE000050041473305A74082804111194506C6D8
:100EF000EF00D0390545EFB0106D411183A7011AFD
:100F0000328806C6AA882E873686C847630D080031
:100F1000B7F7001C93874728B7F5001CC686938552
:100F200045294D20D93737F8001C930788B413089A
:100F300088B4DDB74111B286014606C67D3FAA8559
:100F40008146014601456F40800B4111814522C415
:100F500006C62A84EF40601103A5C1195C5D91C3E8
:100F600082972285EFB03066411122C426C2370431
:100F7000011CB704011C938704C3130404C31D8C14
:100F800006C6098411C893142400F114BE949C4031
:100F90007D148297F11465FC2244B24092444101D1
:100FA0006FF09F9339711303C10236D69A8606CE2D
:100FB0003AD83EDA42DC46DE1AC6EF20A005F240FF
:100FC00021618280397132D42E86AA851303810271
:100FD00003A5011A36D69A8606CE3AD83EDA42DC06
:100FE00046DE1AC6EF200003F240216182804111E3
:100FF00022C44AC03704011C3709011C930704C3EB
:10100000130909C33309F94006C626C213592940FA
:10101000630B0900130404C381441C4085048297B8
:101020001104E31C99FEEFF03F8B3704011C3709D4
:10103000011C930704C3130909C33309F940135969
:101040002940630B0900130404C381441C40850438
:1010500082971104E31C99FEB24022449244024953
:1010600041018280AA8503A5011A31A0AA8503A5A2
:10107000011A6F502072797126D24ECE06D622D434
:101080004AD052CC56CA5AC85EC662C49384B500D0
:10109000D947AA8963EE9704C14763E0B71AEFB056
:1010A000905DC144E1470946138981C2CA97C04394
:1010B000138787FF6309E42C5C405444F19B104480
:1010C000A297D84354C690C6136717004E85D8C35D
:1010D000EFB0505B13058400B25022549254025971
:1010E000F249624AD24A424BB24B224C456182805D
:1010F000E19863C4041463E2B414EFB0D0579307CB
:10110000701F63F6972C93D79400638D07121147D5
:101110006360F72893D764001386970313858703CA
:1011200093163600138981C2CA96C042E1166385C0
:1011300086025C40BD45F19B3387974063CDE50057
:10114000635107244044638986005C40F19B3387E8
:101150009740E3D7E5FE2A86032409011305890099
:101160006309A40E5C40BD46F19B3387974063CC76
:10117000E624232AA9002328A900635B072213077A
:10118000F01F6361F7288D83138717000E0703286C
:1011900049004A9793D6274085470C43B397D70019
:1011A000B3E70701930687FF54C40CC42322F90058
:1011B00000C3C0C5135726408546B396E60063E3D7
:1011C000D70A33F7F60001EF8606719A33F7F60077
:1011D000110611E7860633F7F600110665DF3D4874
:1011E00093183600CA98C6853283C0456398850037
:1011F000E5A2635A071E40446380851E5C40F19B54
:1012000033879740E357E8FE5444104493E51400B5
:101210004CC054C690C6A294232A99002328990052
:1012200093661700C8C488C4D4C0A2974E8598C3DB
:10123000EFB050451305840045B5B14723A0F90030
:10124000014559BD93060020130600041305F00361
:10125000D1BD13572640854683274900B396E60043
:10126000E3F1D7F6032489005C4093FAC7FF63E7F4
:101270009A00B3879A403D476346F70E03AAC158C8
:1012800003A7411AFD57269A6300F7248567BD0717
:101290003E9AFD77337AFA00D2854E858D25FD572B
:1012A0002A8B630BF51AB30754016365F51A938B08
:1012B000011C03A70B00529723A0EB00638CA7240B
:1012C00003A6411AFD566304D628B307FB403E9798
:1012D00023A0EB0093777B00056791C7330BFB409E
:1012E0002107210B1D8F8566B3074B01FD16F58F76
:1012F000330AF740D2854E851925FD57630CF52436
:10130000B3076541D29793E7170003A70B00232487
:101310006901529723A0EB002322FB0063032403FF
:101320003D4663725623544093874AFFE19B858A6A
:10133000DD8E54C09545B306F400CCC28CC66369FB
:10134000F62483A6815863F4E60023A4E15803241D
:101350008900544003A64158F19A6373E61023A212
:10136000E158FDA813E7140058C0A2942324990063
:1013700093E717004E85DCC0EFB0D0301305840032
:10138000A1BB54442DBBC0470906E38787DC2DB3BE
:101390005147637AF70A130740056369F71293D739
:1013A000C4001386F7061385E706931636009DBB27
:1013B000A297D8434E8513671700D8C3EFB0902C7F
:1013C0001305840011BB93E6140054C0A9B513D6CD
:1013D000340093878400C9B9050393773300A105CE
:1013E000E39507E07DA0A297D843544410441367C7
:1013F0001700D8C354C64E8590C6EFB0B028130569
:101400008400D9B913D79700914663F7E606D14611
:1014100063E6E60E9305C7059306B7058E05CA95E4
:101420009841E1156381E50C5443F19A63F5D700C7
:101430001847E39BE5FE4C47832749004CC418C47A
:1014400080C540C785BB1386C7051385B7059316AE
:101450003600C9B963032411032489005440F19A6A
:10146000B387964063E596003D47E34DF7EE4E8522
:10147000EFB0502101458DB113D767009305970355
:10148000930687038E0561BF83A808007D16639AC3
:10149000E81293773600138788FFFDF7032749008A
:1014A00093C7F6FFF98F2322F9008606E3ECD7DA1B
:1014B000E38A06DA33F7F60011E7860633F7F6001B
:1014C000110365DF1A8629BB410AF9B313074015DA
:1014D000636EF70493D7F4001386870713857707A5
:1014E0009316360081B10328490089868547B39752
:1014F000D700B3E707012322F90089B79306400517
:1015000063E5E60613D7C7009305F7069306E706DB
:101510008E0531B793964701E39406DA8326890056
:10152000B3874A0193E71700DCC221BD130740557A
:101530006369F70493D724011386D7071385C70778
:1015400093163600C5B685472322FB000DB723A2AC
:10155000611B49B38547014A4DBB938B011C03A70F
:101560000B00529723A0EB00A1BB9306401563E943
:10157000E60213D7F70093058707930677078E05D2
:1015800079BD9306803F1306F0071305E00759BEA7
:10159000930584004E85EF50E01F03A70B0055B361
:1015A0009306405563EAE60013D727019305D70752
:1015B0009306C7078E05A5B59305803F9306E00700
:1015C000B9BD83274900D5B5B3C7A5008D8BB30836
:1015D000C500A1E78D4763F2C70413773500AA87DA
:1015E00029EB13F8C8FF130708FE63E7E706AE868A
:1015F0003E8763F1070390421107232EC7FE910631
:10160000E36B07FF13C7F7FF3A981378C8FF110879
:10161000C297C29563E617018280AA87E37E15FF11
:1016200003C705008507A38FE7FE8505E3EA17FFDB
:10163000828003C705008507A38FE7FE13F73700F5
:10164000850545D303C705008507A38FE7FE13F77C
:101650003700850579FF71B783A3050083A2450094
:1016600083AF850003AFC50083AE050103AE45011E
:1016700003A38501D04D9385450283A6C5FF9387BB
:10168000470223AE77FC23A057FE23A2F7FF23A433
:10169000E7FF23A6D7FF23A8C7FF23AA67FE23AC33
:1016A000C7FE23AED7FEE3E9E7FA91B73D482A87A4
:1016B0006373C8029377F700BDEFADE5937606FF3D
:1016C0003D8ABA960CC34CC30CC74CC74107E36BA9
:1016D000D7FE11E28280B306C8408A069702000056
:1016E00096966780A6002307B700A306B7002306D7
:1016F000B700A305B7002305B700A304B700230470
:10170000B700A303B7002303B700A302B700230267
:10171000B700A301B7002301B700A300B70023005F
:10172000B700828093F5F50F93968500D58D93963B
:101730000501D58D61B79396270097020000969614
:101740008682E78086FA9680C1171D8F3E96E374E5
:10175000C8F8A5B7397132D436D63EDA3AD842DC69
:1017600046DE3C102E860C45BE8606CE3EC6EF20D9
:101770006032F24021618280397103A3011A32D4B0
:1017800036D63EDA2ED23AD842DC46DE5C108325CD
:1017900083002A86BE861A8506CE3EC6EF20802F9D
:1017A000F24021618280397122DC2A842E8526DA7A
:1017B00006DEAE84E126B7F7001C938787C03ED4CF
:1017C00085473ED61C10930615003ECA185C894713
:1017D00026D02AD236CE3ECC0C441DCB8397C500F2
:1017E00013972701634B07008966F851D58FF97667
:1017F000FD16758F2396F500F8D150082285EF501D
:10180000801B09ED2945F2506254D2542161828037
:1018100022852EC6EF405055B245C9B77D55E5B774
:10182000AA8503A5011A41B7411122C42E848C4117
:1018300026C206C6AA8489E9A2852244B24026852A
:10184000924441016F401075C537A2852244B240D1
:101850002685924441016F40F07383A7011A638F7C
:10186000A7080111784526CA06CE22CC4AC84EC622
:10187000AA8415C7014993090008B30727018C43BF
:1018800081C980412685EF40F070A2857DF8F8443B
:101890001109E31439FFBA852685EF40B06FAC40DB
:1018A00081C52685EF40106F83A5841481CD1389EF
:1018B000C4146389250180412685EF40B06DA2855F
:1018C000E31B89FEEC4881C52685EF40B06C9C5C2B
:1018D00099CFDC5C2685829783A5042E89C9624452
:1018E000F2404249B2492685D244056135BFF240F3
:1018F0006244D2444249B2490561828082804111EA
:1019000022C426C2AA842E8506C623A8016CEFB085
:101910004054FD576307F500B24022449244410110
:10192000828083A7016DEDDBB24022449CC09244CB
:101930004101828041119305000822C406C62A8411
:10194000EFF06FF3232EA42C09CD93070508232075
:1019500005001105E31DF5FE0145B2402244410199
:1019600082807D55DDBF8327C52D99C301458280C7
:10197000D1B77D47636BB7000327C52D01CF8A051B
:10198000BA95984190C13A858280594718C17D57D0
:101990003A85828001112EC632C206CE2AC4593F32
:1019A0007D57B2451246A24719E503A7C72D8A0500
:1019B000BA95984190C1F2403A8505618280411103
:1019C00006C622C426C24AC0FD4763EDB70483277A
:1019D000C52DAA842E8485CB13972500BA979843EA
:1019E0001DC3854601496309D700FD566308D70228
:1019F00023A007002E850297B24022444A859244D4
:101A00000249410182802685E52022862244B24097
:101A10000249AA8526859244410171A8D9471CC173
:101A20000549D9BFD9471CC17D59F9B7FD4763EDB9
:101A3000B70401118327C52D22CC06CE2A848DC779
:101A400013972500BA979843054519CBFD566304B3
:101A5000D7026309A7022E8523A00700029701453C
:101A6000F2406244056182802EC6E935B24509E93B
:101A70008327C42DF1B7F240624409450561828095
:101A80007D55F9BF0D45E9BF7D558280AA8503A527
:101A9000011A35B72E86AA8503A5011AD9BD03A55B
:101AA000011A8327C52D99C30145828061B5AA8596
:101AB00003A5011AA5BF4111AE8722C426C2AA847C
:101AC000B2853E8506C623A8016CEFB06032FD5793
:101AD0006307F500B240224492444101828083A70B
:101AE000016DEDDBB24022449CC0924441018280F2
:101AF0006FB0402F3571130EC1083ECB3703008005
:101B0000C177AE8E1343F3FF36C7938787202C002F
:101B1000F28686DE3ECA3AC942CD46CF76C476CC3E
:101B20001ACE1AC872C26D28A24723800700F65049
:101B30000D6182803571AA8E130E81083ECB03A5FC
:101B4000011A37030080C1771343F3FF32C536C74C
:101B5000938787202E86F2862C0086DE3ECA3AC9FD
:101B600042CD46CF76C476CC1ACE1AC872C28D2822
:101B7000A24723800700F6500D61828093773500DD
:101B8000AA85A1E3B7867F7F9386F6F77D56110578
:101B90000327C5FFB377D700B697558FD98FE38852
:101BA000C7FE8347C5FFB305B5400347D5FF0345CF
:101BB000E5FF85C705C33335A0002E9579158280D2
:101BC00071D383470500050513773500F5FB0D8DAF
:101BD0007D1582801385D5FF82801385C5FF8280A5
:101BE0002971232E1112232C8112232E7111232AE5
:101BF0009111AE8B328436CE232A911223282113E1
:101C0000232631132324411323225113232061134C
:101C1000232C81112328A1112326B111AA8CEF5066
:101C2000602108412ADC993F83D7CB002ADA93F759
:101C3000070889C783A70B01E38D073E930A010CB0
:101C400037FA001C56C702CB02C902D402D602D80A
:101C5000568382C202DE02D0130A8A4383470400FD
:101C6000D1CB13075002A2846395E7003DA8638699
:101C7000E700850483C70400FDFB338984406303C8
:101C800009025A47CA474A9785072320830023221F
:101C900023013ACB3EC91D4721036345F704025691
:101CA0004A9632D083C70400B1C713841400A30737
:101CB0000106014501487D5D8144014F1307800500
:101CC000A5459308A002834D0400050493870DFEEB
:101CD0006362F70CB7F6001C8A079386462CB6970A
:101CE0009C4382877001DE856685EF60E05011E9D4
:101CF000568375B7DA4791C77001DE856685EF6058
:101D0000A04F83D7CB0093F7070499C36F10400A05
:101D10008320C11303248113025583244113032913
:101D200001138329C112032A8112832A4112032B32
:101D30000112832BC111032C8111832C4111032D1E
:101D40000111832DC11031618280136F0F01A5BF76
:101D5000F2468442910636CEE3D704F6B3049040AF
:101D6000136F4F008DB705451308B002A9BF81441A
:101D700093860DFD939724000504BE94834DF4FFD4
:101D80008604B69493860DFDE3F6D5FE93870DFE8B
:101D9000E372F7F419C16F10601CE38D0DF4EE8748
:101DA000230CF108A307010639A219C16F10801B8B
:101DB000B7F7001C9387C746BEC2F24613770F01E0
:101DC0009C42910636CE09E713770F04E31B0720E8
:101DD00093761F0009476387063263850732EE86D4
:101DE00013060003A308D1062308C106A3070106B2
:101DF000FD56136F2F00631CDD30FA8901468546BE
:101E00006302D7088946630CD75ED68611A0CA86BE
:101E100013F7770013070703A38FE6FE8D8313895B
:101E2000F6FFF5F793F719006387075E9307000342
:101E30006303F75EF916A30FF9FE338CDA40368997
:101E4000628B634EAC0502D23DCE050BADA8136F7D
:101E50000F0495BD19C16F10E00FF24813770F0101
:101E600083A70800910846CE09E713770F04E31B08
:101E7000071263C4073A0346F106FD560547FA897F
:101E80006318DD282547E362F72C93870703A30F28
:101E9000F10A054C1309F10B628BE356ACFB6A8B1C
:101EA00002D25DB7F248A307010683A70800910894
:101EB000230CF10846CEFA89054B0146054C014D2D
:101EC00002D21309810993F8290063830800090BE2
:101ED00013FF4908DA47631A0F08B3866441635653
:101EE000D00841464A476350D606A2C641489D4F96
:101EF000C6C0FAC4368421A0411463528804B7F8DE
:101F0000001CC10705079388884223201301232260
:101F100003013ECB3AC92103E3D0EFFE7001DE8519
:101F2000668542C87ECAEF60202D4248D24FE31A30
:101F300005DC4114DA474A475683E34288FCA2860F
:101F40008648264F3644B7F5001CB697050793859B
:101F500085422322D3002320B3003ECB3AC99D46BD
:101F6000E3CDE6160346F10621030DC24A47930668
:101F7000F1062320D3008507854605072322D300D9
:101F80003ECB3AC99D46210363CBE63A6381080202
:101F90004A4794182320D30089078946050723223E
:101FA000D3003ECB3AC99D46210363C5E6681307BB
:101FB00000086307EF52330D8D41635DA007414672
:101FC0004A476354A60541489D4821A0411D635ED0
:101FD000A803C107050723204301232203013ECBA9
:101FE0003AC92103E3D4E8FE7001DE85668542C864
:101FF00046CCEF6060204248E248E31405D0411D22
:10200000DA474A475683E346A8FDEA9705072320A7
:1020100043012322A3013ECB3AC99D46210363DB42
:10202000E6007001DE856685EF60001DE31B05CCD0
:10203000DA47568313F709106312073E4A47E297BF
:10204000050723202301232283013ECB3AC99D4665
:1020500063CDE638210393F94900638B0906338980
:10206000644163572007C1464A4763D42605C149E6
:102070001D4C21A0411963DE290337F6001CC1075E
:102080000507130686422320C300232233013ECBDB
:102090003AC92103E350ECFE7001DE856685EF60EE
:1020A000A015E31005C64119DA474A475683E3C62F
:1020B00029FDB7F6001C93868642CA9705072320A0
:1020C000D300232223013ECB3AC99D4663C3E66C6D
:1020D00063D36401DA84025726973AD0639607489F
:1020E00002C95683A5BEE3140564B7F7001C9387A5
:1020F0008745BEC2D9B17246136F0F011C4211064B
:1021000032CE0547A3070106FD56E308DDCE0146A2
:102110009379FFF7E39507CEE3180D006315076089
:10212000137C1F005689E3090CD693070003A30F05
:10213000F10A1309F10B8DB3F246136F0F019C42A4
:10214000910636CE01477DBF136F8F00ADBE136F72
:102150000F0895BEE311055E93778F00639C0764BB
:10216000F24693877600E19B984383A84700A10736
:102170003AD646D83ECEB707011CC255938707BE54
:10218000370900809843B256DC431349F9FF33F90D
:10219000250136853A86BE86CA851AC63ACC3ECA1D
:1021A0007AC8EF80D01432436247D247424F631E51
:1021B000057AB256CA8536853A86BE86EF70D04714
:1021C0003243424F6353A07A3257C2573A85BE8595
:1021D00001468146EF7050463243424FE34F052A95
:1021E0000346F10693077004E3C0B71137F9001CEA
:1021F0001309894402D29379FFF70D4B0D4C014D21
:10220000E30306CC99B1E3130554F245136F0F01B4
:102210009C4191052ECEE3D007C61307D002B30729
:10222000F040A307E1061306D00281B9F245937688
:102230000F019C4191052ECE0147E39506EC937664
:102240000F04E38106ECC207C1836DBD7247F248FB
:102250001C436177134707832318E10637F7001CF7
:102260001307C7469108BAC2136F2F0046CE09471D
:10227000930D800741BD834D04000504E3891D478C
:1022800093860DFD014DE3E3D5A493172D000504BE
:102290003E9D834DF4FF060D369D93860DFDE3F6BE
:1022A000D5FE2DB4E3110548F24893770F0103A73B
:1022B0000800910846CE639B074E137F0F04E3038B
:1022C0000F0682572310F70051BA136F1F00E5BAAB
:1022D000E31B089E054513080002F5B2724693768B
:1022E0000F011C42110632CE0547B1DA21BDF2457D
:1022F000A307010603A90500938945006305095852
:10230000FD576309FD7E6A8681454A851AC67AC8EB
:10231000EF40104D3243424FE303051E330C25417D
:10232000134BFCFF0346F106135BFB414ECE02D27A
:10233000337B6C01FA89014DE30706B839B67001A9
:10234000DE85668546CC7AC8EF50106BE248424F76
:10235000E319059ADA47568315B94A4737E6001C50
:10236000130646232320C3008507054605072322BD
:10237000C3003ECB3AC91D462103635CE6007001F1
:10238000DE856685EF505067E31D0596D656DA4721
:10239000568381E6A2586387087AD2554A47625627
:1023A000AE9705072320C3002322B3003ECB3AC9D2
:1023B0001D462103635DE6007001DE856685EF50F2
:1023C000B063E3100594D656DA474A475683E3CF05
:1023D0000618A2580507C6972320230123221301BC
:1023E0003ECB3AC99D46E3D7E6C67001DE856685D9
:1023F000EF509060E3170590DA475683A9B99646E7
:10240000568913F7F7003697034707007D19230015
:10241000E9009183FDF7338C2A41BDBC13075006B8
:10242000635DB715B25642573685BA850146814677
:102430001AC63ECAEF70900E3243D2476318052089
:102440004A47B7E6001C9386462385072320D3001E
:10245000050785462322D3003ECB3AC99D47210379
:1024600063C1E762D657225763C7E70093F71900A5
:1024700099E3DA47CDB6DA47D2584A47E255C697CC
:1024800005072320B300232213013ECB3AC99D4602
:10249000210363C0E63E22571309F7FFE35D20BB2B
:1024A000C1464A4763D72649414C9D4D21A0411959
:1024B00063512C49C10705072320430123228301CF
:1024C0003ECB3AC92103E3D4EDFE7001DE8566857B
:1024D000EF509052E3170582DA474A475683C1BF4F
:1024E000B3866441E359D0AC41464A476358D604A9
:1024F000A2C041489D48368421A04114635E8802F1
:10250000C107050723204301232203013ECB3AC91B
:102510002103E3D4E8FE7001DE85668542C846CC1F
:10252000EF50904D4248E248631D05FC4114DA47E4
:102530004A475683E34688FCA2860644B6970507B9
:102540002322D300232043013ECB3AC99D462103D9
:10255000E3D3E6A67001DE856685EF50F04963128D
:1025600005FADA47568381BC7001DE856685EF5037
:10257000B048E30705B66FF0CFF8CA48A255054743
:1025800023202301938D1700130C830093871800D9
:102590006352B71E05472322E3006ECB3EC91D4799
:1025A000634EF7345256E25613871700B29D23202C
:1025B000DC002322CC006ECB3AC99D47210C63CAB4
:1025C000E734B256C257A25813038C001388F8FFA1
:1025D0003685BE8501469307170081463E8D1AC693
:1025E0003ACC3ECA42C8EF70607332436247D2476A
:1025F0004248630E05120509C29D23202C012322A7
:102600000C016ECB6AC99D4763C6A72593070C01D1
:10261000130D27001A8C3E83F255F818B387B501C5
:102620002320EC002322BC003ECB6AC91D47E354A3
:10263000A7A365BB7001DE8566857AC8EF50D03BE5
:10264000424F631005ECDA47568395B2D656E356EF
:10265000D0D0125C2257634A8719635F80014A47D2
:10266000E297050723202301232283013ECB3AC9A9
:102670009D46210363CCE64A1347FCFF7D879258B1
:10268000337CEC00338C8841634580175657A25841
:10269000634B172193F6190063970620A2589255B1
:1026A0003387E840B386B8403A8C63D3E600368C73
:1026B00063518003CA469258E297469985062320C3
:1026C0002301232283013ECB36C91D462103634EDD
:1026D000D65C1349FCFF1359F94133792C013309B6
:1026E0002741E35A2097C1464A4763D42625414CE7
:1026F0009D4D21A04119635E2C23C10705072320AE
:102700004301232283013ECB3AC92103E3D4EDFEEA
:102710007001DE856685EF50302E631405DEDA47E2
:102720004A475683C1BF014C56896FF0EFF6E35517
:1027300000EF4147635B077922D241491D4D428436
:1027400029A04114850763578934C10D23204C010A
:1027500023222C016ECB3EC9210CE354FDFE7001F7
:10276000DE856685EF505029631D05D8DA4DCA47CE
:10277000568CC1BF93F61900E39E06E02322E300C6
:102780006ECB3EC91D476347F70C138D28004103EC
:1027900061B57001DE856685EF501026631305D69E
:1027A000DA473DB2C207C1876FF0AFEC82550CC368
:1027B0006FF0CFCA724688081C4213074600944344
:1027C0003ACEB6C8D443B6CA9847BACCDC471AC684
:1027D0007AC8BECEEF80004E2AD62ED83243424F62
:1027E00059BAC207C1836FF0AFDE3A8CE34980E784
:1027F00061B5C1464A4763D3862DC14D1D4D21A009
:10280000411C63DD8D2BC1070507232043012322D3
:10281000B3013ECB3AC92103E354EDFE7001DE85DE
:102820006685EF50701D631E05CCDA474A47568314
:10283000C1BF930500046685EFE0FF8323A0AB00D2
:1028400023A8AB00630D056E9307000423AAFB00C9
:102850006FF0CFBE7001DE856685EF50F019631210
:1028600005CACA48DA4D138D18001303810C568C23
:1028700065B37001DE856685EF501018631305C8D7
:10288000DA47568309B999476A8B63EBA72B37F967
:10289000001C4ECE5A8CFA890146014D02D2130912
:1028A00009486FF04FE2D255CA466256AE97850688
:1028B0002320C3002322B3003ECB36C91D4621038B
:1028C000E35ED6DC7001DE856685EF50F012631A98
:1028D00005C25657DA475683D1B37001DE85668547
:1028E00046CC7AC8EF505011E248424F631B05C0F6
:1028F0000346F106DA4756836FF02FE77001DE8555
:102900006685EF50700F631E05BEDA4DCA47568CC0
:1029100051B97001DE856685EF50100E631305BE58
:10292000DA4D4A47568C71B98546631DD7CC6FF096
:10293000CFD52320430123222301CA9705073ECB8D
:102940003AC99D4663D8E6F04DB45689A94633F797
:10295000D702B3D7D7027D19130707032300E90075
:10296000FDF7338C2A416FF02FD3B25742573E8880
:102970003E864285BA86BA851AC67AC8EF80201785
:102980003243424F63150550FD5713FBFDFD6306AF
:10299000FD3693077004630DFB1A425E82C0936993
:1029A0000F1063590E00B70700801306D00233CE14
:1029B000C701B2C0930760066388FD3093076004C7
:1029C000638FFD369307500432576307FB183A852F
:1029D000DC187286AA8593084108130881076A8764
:1029E000894666851AC672CC7AC8EF20100993070B
:1029F00070062A893243624E424F6394FD529377A8
:102A00001F00330CA501638E071CB257F2853E856B
:102A1000014681461AC67AC8EF704030E2873243D9
:102A2000424F11CD9A4763FC870193060003138739
:102A300017003AC32380D7009A47E3EA87FFB3879A
:102A400027413ED4D657130770043ED26304EB1AD5
:102A5000930760066397FD1A1257635FE04463199A
:102A60000D40137F1F0063150F40125B5A8C864781
:102A7000639B07200346F106014D630606C46FF011
:102A8000CFBC7001DE856685EF500077631B05A61D
:102A90005683C9BA228812543E8D93078C00C29D7A
:102AA00023204C0123220C016ECB6AC91D47E3434E
:102AB000A7DB050D138387003E8CB9BEE29705079F
:102AC00023204301232283013ECB3AC99D462103A3
:102AD000E3DEE6BA7001DE856685EF50E0716312D1
:102AE00005A2DA4756835DB637F9001C1309C944BD
:102AF0006FF04FF04A851AC67AC8EFF02F88134B53
:102B0000F5FF424F0346F106135BFB414ECE02D266
:102B10002A8C337B6501FA89014D3243630506BA7D
:102B20006FF0AFB2025610C36FF04F937001DE85A5
:102B30006685EF50606C6316059CDA4756832DBEA0
:102B4000194BB1B313F71900630707D06FF0FF8477
:102B5000E3150DE4054D91B5930F1D003A8572867E
:102B60007E87AA859308410813088107DC188946E7
:102B700066851AC672CC7AC87ECAEF2000703243CE
:102B8000624E424FD24F2A89930770046395FD38F5
:102B900093771F00638A073693076004330CF901AB
:102BA000E395FDE603470900930700036305F7007B
:102BB000D65F7E9C99BD3257F2853A8501468146A3
:102BC0001AC672CC7AC87ECAEF7040153243624E84
:102BD000424FD24F71DD8547B38FF741FEDA7E9CBD
:102BE0002DB51A47D658098F930770043AD446D2A8
:102BF0006319FB009258F55763C4F80063501D0732
:102C0000F91D12579307F7FF6E87BEDA230EE10610
:102C100063C607261307B002A30EE10625476346E5
:102C2000F71C9387070313070003A30FF106230F75
:102C3000E1061C01F8183387E740A2583ADE8547C1
:102C4000330C170163DA1721D25502D22E9C134B95
:102C5000FCFF135BFB41337B6C0111BD1257A25784
:102C6000634BF70A137F1F00630E0F1C9258D25557
:102C7000930D7006338CB800134BFCFF135BFB41C4
:102C8000337B6C01EDB39307D002A307F106130663
:102C9000D002014D050B6FF00FA39307D002A307DD
:102CA000F1061306D0026FF0EFD37001DE85668562
:102CB000EF50805419C16FF0CF845657A258DA47AD
:102CC0003387E840568331B4325772863A85AA85F5
:102CD0009308410813088107DC186A878D466685CA
:102CE0001AC672CC7AC8EF2040592A89330CA50144
:102CF000EA8F3243624E424F75B5194D79B903469A
:102D0000F1064ECE02D26A8B6A8CFA89014D630CB1
:102D1000069A6FF08F932257D2579258330CF700D0
:102D2000634610011257330CEC40050C134BFCFFAB
:102D3000135BFB41337B6C01930D70060DBB325767
:102D400072863A85AA859308410813088107DC1822
:102D50006A878D4666851AC672CC7AC8EF20E05124
:102D60002A89EA8F3243624E424F3DB54156330CB9
:102D7000D04063D3C604C14D1D4D21A0411C63DD6D
:102D80008D03C1070507232043012322B3013ECB56
:102D90003AC92103E354EDFE7001DE856685EF50EC
:102DA000A04519C16FE0FFF5DA474A475683F9B7E6
:102DB000FD573ED06FE0DFF5E29705072320430182
:102DC000232283013ECB3AC99D46210363D3E6E02B
:102DD0007001DE856685EF50204219C16FE07FF2F9
:102DE000DA474A4756836FF0CFDE1305B1082A87CA
:102DF000A945254811A03287B3E6B702B3C7B70289
:102E000093860603A30FD7FE1306F7FFE345F8FEEC
:102E10009387070393F7F70F7917A30FF6FE637FE6
:102E2000A70E9306E10719A083470700850605074B
:102E3000A38FF6FEE31AA7FE7C01918F9305E107AD
:102E4000AE97CDBB134BF7FF135BFB41337B6701A1
:102E50003A8C930D700621B9137F1F007AD2E315C7
:102E60000FDE134BFCFF135BFB41337B6C0101B1A5
:102E70009257D258338C17016A9CE5B79258854710
:102E80001307D002B3871741A30EE10641BB930796
:102E9000700463CEB70337F9001C130909450346D4
:102EA000F10602D29379FFF70D4B0D4C014D19E25B
:102EB0006FF06F816FE07FF963100D02137F1F00C9
:102EC000631C0F00054B054C5DB69A87C9BE37F9E8
:102ED000001C13094945E1B7D255138C15006A9CB3
:102EE000134BFCFF135BFB41337B6C0149B6F2478C
:102EF00003AD0700910763450D003ECE6FE0BFDCD8
:102F00007D5D3ECE6FE03FDC9A475657B387274141
:102F10003AD23ED4C5B1330CF901C5BC9307E107E1
:102F200011BBEA8F95B1A30701076FF0EFB7A307B5
:102F300001076FF08F9BA30701076FF0EFA1B14767
:102F4000FD5523A0FC002ED06FE09FDCA3070107F6
:102F50006FF0AFABA30701076FE03FF0A3070107D6
:102F60006FE0BFE3A30701076FE09FE4FC517971B5
:102F70005AC806D622D426D24AD04ECE52CC56CAF1
:102F80005EC662C413972701328B635B07061C463B
:102F90002E892A8A832B0600FD5AADC303AC4B0051
:102FA00003A40B0093592C0063820904814421A0DF
:102FB0001104638B99020C404A865285EF30206AD7
:102FC0008504E31755FF7D55B250225423240B008E
:102FD00023220B0092540259F249624AD24A424BD0
:102FE000B24B224C4561828083278B00137CCCFF3F
:102FF000B38787412324FB00A10BCDF30145E9B73B
:10300000EF30701BD1B7184611C38DB723220600CD
:10301000014582805171CAD1CECFEAC186D7A2D5EF
:10302000A6D3D2CDD6CBDAC9DEC7E2C5E6C36EDF02
:103030002AD22E89328DB68901C51C5D6383075E55
:103040000317C90093170701C1839396270163CF24
:1030500006008967D98F8326490679777D17758F92
:103060002316F900C2072322E906C18313F787005C
:103070006DC30327090171CFE98B29476387E70EE9
:10308000930D0107B7F4001C37F8001C6EDE82C2F6
:1030900082C0EE8C02D602D49384C45E930BC85FC8
:1030A00083470D0063850752130750026A846395B6
:1030B000E700A1A06386E700050483470400FDFB49
:1030C000330CA44163070C021647864762978507B5
:1030D00023A0AC0123A28C01BAC2BEC09D46A10CA4
:1030E00063D6F600631B077682C0EE8C2257629788
:1030F0003AD483470400638C074C0504A30B0102F8
:10310000014501437D5C814A814613068005A54542
:10311000130EA00203470400130D1400930707FECB
:103120006366F60837F8001C8A0713088848C297B8
:103130009C43828793E606016A84E9BF83AA09005B
:103140009109E3DB0AFEB30A504193E646006A8424
:10315000D1B71255CA85EF10105CE31A05048357E6
:10316000C9002947E98BE39DE7F08317E900E3C92C
:1031700007F01255CE866A86CA85EF0070082AD4F9
:1031800085A1814A930E07FD93972A00050DB38808
:1031900057010347FDFF8608B38A1E01930E07FD02
:1031A000E3F4D5FF930707FEE37EF6F6E31305028B
:1031B000630F07402304E104A30B0102054A854E77
:1031C000A000BDAE05451303B0026A84A1B793E623
:1031D00006086A8481B703470D0013041D00630BC2
:1031E000C77D930E07FD228D014CE3E9D5F39317BC
:1031F0002C00050D3E9C0347FDFF060C769C930EAC
:1032000007FDE3F6D5FF19BF93E616006A8419B7E8
:10321000E31403F20545130300026A84E5BD13F7C6
:10322000060183A709009109631D077413F70604BB
:10323000854519C3C207C183A30B01027D57630AE9
:10324000EC26014613FBF6F76397072663170C6617
:103250006392056093FE16006E8463880E009307E8
:103260000003A307F1061304F106628A6353DC012D
:10327000768A3336C000329A937F2B0063830F0027
:10328000090A0647137F4B089305170096472E86B9
:1032900063160F06B3864A416352D0064146635017
:1032A000D66EC1429D4311A813052700A10C2E879D
:1032B000C1169305170063D5D202C10723A09C0055
:1032C00023A25C00BEC2AEC0E3D0B3FE639B074A3C
:1032D0000147C1160545EE8C93051700E3CFD2FCDC
:1032E000B69723A09C0023A2DC00BEC2AAC01D4743
:1032F0006344A750A10C130615002A878345710368
:1033000093868C006383053413077103850723A01C
:10331000EC00054723A2EC00BEC2B2C01D47635AB1
:10332000C74E63930730639B0F4E0147B4180546A1
:10333000EE8C930500086302BF34330CDC4163520A
:103340008007C14563D4855F414F9D4F01A8130697
:103350002700A10C3687411C63558F03C1079306D4
:10336000170023A07C0123A2EC01BEC2B6C0E3D0AB
:10337000DFFE639B0736411C05460147EE8CE34F99
:103380008FFD93858C00E29723A07C0123A28C0102
:10339000BEC2B2C01D47634EC7480506938685006E
:1033A000AE8CF69723A08C0023A2DC01BEC2B2C073
:1033B0001D476355C736639B073482C0137E4B009D
:1033C00063020E4833844A41635D8004EE864147C0
:1033D0000646635C875A414C9D4C01A89305260024
:1033E000A1063A86411463548C02C10713071600E4
:1033F00084C223A28601BEC2BAC0E3D1ECFE639BA5
:10340000073A411485450146EE86E3408CFEA297BB
:1034100084C2C0C2BEC2AEC01D476359B7306399F3
:103420000750D68863D34A01D288A256C69636D4AE
:1034300021AE03A40900A30B010291096303045008
:10344000FD57630FFC4862868145228536CEEF30FA
:103450003039F24663010554B30E854003467103CB
:10346000368B014C19B563100558B7F7001C9387CC
:10347000C7463ED613F6060183A70900910911E657
:1034800013F6060419C2C207C18313F61600894554
:10349000E30406DAE38207DA13060003A30CE10271
:1034A000230CC102A30B01027D5793E62600E31A09
:1034B000ECD8368B01460547638FE5040947EE8655
:1034C0006398E5286E84325813F7F7004297034754
:1034D00007007D142300E4009183F5F7B38E8D403F
:1034E00069B393E606046A8435B16318054E13F791
:1034F000060183A70900910911E713F7060419C310
:10350000C207C18763C00708034671037D5785451D
:10351000368BE319ECD225476365F73A93870703A7
:10352000A307F106854E1304F10681B383A70900B2
:10353000A30B01022304F1049109054A854EA00062
:10354000368B014C15BB631D0548B7F7001C9387EC
:1035500087453ED605B783A7090093E60601910982
:103560008545D9B983A7090093E6060191098145EC
:10357000E1B1631D054683A7090093E606019109A1
:10358000E3D407F81307D002B307F040A30BE1021E
:103590001306D002A5BF13F7060183A709009109FE
:1035A0006313073E13F706048145E30707C859B1C3
:1035B000631E054093F7060103A709009109638C78
:1035C0000732A25614C383470D00E39F07AC96470A
:1035D0006399073C8357C90093F707046399073C35
:1035E000BE502E5422559E540E59FE496E4ADE4A54
:1035F0004E4BBE4B2E4C9E4C0E4DFA5D6D61828043
:10360000617713470783231CE10237F7001C130778
:10361000C74683A7090093E6260091093AD6894553
:1036200021B9EF20707429BC12557018CA8576C66E
:103630007AC87ECA253AB24E424FD24F41FD064764
:10364000964713061700B418EE8CE3840FCE381893
:10365000890723A0EC00094723A2EC00BEC2B2C038
:103660001D476353C71C6393072093050008B418D4
:1036700005460147EE8CE312BFCC338F4A41E35E2F
:10368000E0CBC14563D6E531C14F9D4201A893050A
:103690002700A10C3687411F63D5EF03C1079306AE
:1036A000170023A07C0123A2FC01BEC2B6C0E3D058
:1036B000D2FE639E0710411F85450147EE8CE3CF84
:1036C000EFFD13858C00FA9723A07C0123A2EC0167
:1036D000BEC2AEC01D47634DB71A138615009306D0
:1036E00085002E87AA8C91B912557018CA8576C6A6
:1036F0007AC87ECAA538B24E424FD24FE31C05ECC1
:103700000647964713061700EE8CB1B11255701894
:10371000CA85A938E31005EC9647EE86137E4B0068
:1037200063060E0033844A41E34380CAD68863D3DC
:103730004A01D288225746973AD499C71255701831
:10374000CA852D30E31805E882C0EE8C91BAA286B6
:1037500013F7770013070703A38FE6FE8D83138407
:10376000F6FFF5F793771B00E38A07D6930700036C
:10377000E306F7D6F916A30FF4FEB38EDD403684C8
:10378000EDB412557018CA8516CC1ED036CE76C64A
:103790007AC87ECAEFF08FFDE2428253F246B24E03
:1037A000424FD24FE31805E206479647130517002C
:1037B000EE8CFDBC12557018CA85EFF02FFBE31B91
:1037C00005E00646964793051600EE8621B9125588
:1037D0007018CA8516CC76C67AC87ECAEFF00FF983
:1037E000E242B24E424FD24FE31605DE06479647FD
:1037F00093051700EE8C45B56397071003477103D7
:10380000E30307B293077103BED88547BEDAB41845
:1038100005463287B68C0506A10605BD3C18BED804
:103820008947BEDAB41805463287B68C0506A1066C
:1038300009B6ADE70547F687A2D8F6DAF6C2BAC0F0
:10384000B418E9BDD68863D34A01D2882258469875
:1038500042D4DDBD814E6E8409BC12557018CA85F4
:10386000EFF0CFF0E31805D6EE8C49B01255701882
:10387000CA8576C67AC8EFF06FEFB24E424FE31BAF
:1038800005D40647964713061700B418EE8C55B4B6
:10389000E1E7B41805460147EE8C45B4125570189F
:1038A000CA8576C6EFF08FECB24EE31505D2064618
:1038B00096470506B418EE8CEDB40547E390E5C0D5
:1038C000B1B96E84A94633F7D702B3D7D7027D14B6
:1038D000130707032300E400FDF7B38E8D4071B298
:1038E000228536CEEFE08FA9F246AA8E03467103F9
:1038F000368B014C9DBA93F60604A257B5CE231021
:10390000F7006FF0EFF912557018CA8576C67AC8BD
:103910007ECAEFF0AFE5B24E424FD24FE31C05CA6C
:103920000647964713061700EE8CC9BAB685A1BCA8
:1039300012557018CA85EFF06FE3E31D05C896476E
:10394000F5B39947E28E63F38701994E37F4001C73
:10395000768A13040448EDB612557018CA8576C6E7
:10396000EFF0CFE0B24EE31705C6064796471306C1
:103970001700B418EE8CD1B21CC36FF06FF22E8515
:1039800085B2854555B8814545B89305160041B4C3
:103990003685B2850DBBE28E03467103368B014C32
:1039A000E9B012557018CA85EFF04FDC25B1FD570C
:1039B0003ED43DB103AC0900910963460C00228D51
:1039C0006A846FF02FF57D5C228DDDBFA30B610251
:1039D000D5B6A30B61026FF0AFFDA30B610201BE70
:1039E000A30B61029DB6A30B610241B4A30B61025C
:1039F00059B6B2862E86AA8503A5011A6FF08FE10B
:103A000083D7C500130101B803AE450603D3E50013
:103A100083A8C50103A84502F59B13070040232C8A
:103A20008146231AF1002E849C182C00232A9146EB
:103A300023282147232E11462A89F2D6231B610011
:103A400046D242D63EC43ECC3AC83ACE02D0EFF07F
:103A50006FDCAA84635905028357410193F7070479
:103A600099C78357C40093E707042316F400832003
:103A7000C147032481472685032901478324414701
:103A80001301014882802C004A85EF20F00369D59C
:103A9000FD54D9B72971232E1112232C8112232210
:103AA0005113232E7111AE8A328436CE232A9112FD
:103AB00023282113232631132324411323206113A8
:103AC000232C8111232A91112328A1112326B1111E
:103AD000AA8BEF30203608412AD8EFE02F8A2ADA65
:103AE00063860B0083A78B03638407120397CA00C6
:103AF00093170701C1839395270163CF0500896759
:103B0000D98F83A64A0679777D17758F2396FA0099
:103B1000C20723A2EA06C18313F7870055CF03A784
:103B20000A015DCBE98B29476385E70C130B010C78
:103B300037FA001C5AC702CB02C902D402D602DCF3
:103B40005A8382C202DE02D0130A0A788347040035
:103B5000638C073A13075002A2846395E70081A0A3
:103B60006386E700850483C70400FDFB3389844036
:103B7000630309025A47CA474A97850723208300EF
:103B8000232223013ACB3EC91D472103E34BF71AF9
:103B900002564A9632D083C70400638707361384DF
:103BA0001400A3070106014501487D5D8144014FD2
:103BB00013078005A5459308A002834D0400050462
:103BC00093870DFE6368F708B7F6001C8A07938693
:103BD000C660B6979C438287D6855E85EF10A0337A
:103BE00019C16F10C00583D7CA002947E98BE39F2D
:103BF000E7F28397EA00E3CB07F2F2462286D68506
:103C00005E85EF1060262AD009AE136F0F0175B7DD
:103C10005E85EF207015D9BDF2468442910636CEFE
:103C2000E3DD04F8B3049040136F4F0079B781448B
:103C300093860DFD939724000504BE94834DF4FFF5
:103C40008604B69493860DFDE3F6D5FE93870DFEAC
:103C5000E37CF7F619C16F10401F63870D2AEE87CA
:103C6000230CF108A307010685A805451308B00237
:103C7000A9B719C16F10201BF24813770F0183A752
:103C80000800910846CE09E713770F04E3140720D4
:103C900063C407460346F106FD560547FA896318D3
:103CA000DD2C2547E366F73C93870703A30FF10A52
:103CB000854C1309F10B6A8C63539D01668C02D20B
:103CC00005C6050C15A0F248A307010683A7080046
:103CD0009108230CF10846CEFA89054C0146854C23
:103CE000014D02D21309810993F82900638308006A
:103CF000090C13FF4908DA47631A0F08B386844199
:103D00006356D00841464A476350D606A2C641488A
:103D10009D4FC6C0FAC4368421A041146352880462
:103D2000B7F8001CC1070507938808772320130103
:103D3000232203013ECB3AC92103E3D0EFFE7001F9
:103D4000D6855E8542C47EC6EFF0EFAB2248B24F07
:103D5000631F051A4114DA474A475A83E34288FC35
:103D6000A2868648264F3644B7F5001CB69705074D
:103D7000938505772322D3002320B3003ECB3AC995
:103D80009D46E3C4E6180346F10621030DC24A47E7
:103D90009306F1062320D3008507854605072322D5
:103DA000D3003ECB3AC99D46210363C6E64A6381F0
:103DB00008024A4794182320D3008907894605073B
:103DC0002322D3003ECB3AC99D46210363C5E67842
:103DD00013070008630FEF60330D9D41635BA0077D
:103DE00041464A476353A60541489D4821A0411DCD
:103DF000635DA803C10705072320430123220301B4
:103E00003ECB3AC92103E3D4E8FE7001D6855E8536
:103E100042C446CCEFF02F9F2248E2486DE9411D95
:103E2000DA474A475A83E347A8FDEA970507232064
:103E300043012322A3013ECB3AC99D46210363DA05
:103E4000E6007001D6855E85EFF0EF9B69E1DA4709
:103E50005A8313F709106312074E4A47E69705077E
:103E600023202301232293013ECB3AC99D4663CDF3
:103E7000E648210393F94900638A0906338984419E
:103E800063562007C1464A4763D32605C1499D4C66
:103E900021A0411963DD290337F6001CC10705077E
:103EA000130606772320C300232233013ECB3AC9F1
:103EB0002103E3D0ECFE7001D6855E85EFF0AF9470
:103EC00039E54119DA474A475A83E3C729FDB7F66E
:103ED000001C93860677CA9705072320D300232268
:103EE00023013ECB3AC99D4663CFE67463D3840178
:103EF000E284025726973AD063910758834704001B
:103F000002C95A83E39807C4DA47E39B073683D78D
:103F1000CA0093F70704E39407528320C1130324D4
:103F20008113025583244113032901138329C112EC
:103F3000032A8112832A4112032B0112832BC11100
:103F4000032C8111832C4111032D0111832DC110EC
:103F500031618280F246136F0F019C42910636CE8A
:103F60000147A3070106FD56630BDD060146937961
:103F7000FFF7A5EBE31D0D0C631B075E937C1F0091
:103F80005A89E38A0CD293070003A30FF10A13099D
:103F9000F10B15B3E31F0568B7F7001C938787453E
:103FA000BEC2F24613770F019C42910636CE09E756
:103FB00013770F04631D076C93761F000947D5D252
:103FC000CDD3EE8613060003A308D1062308C1064D
:103FD000A3070106FD56136F2F00E319DDF8FA89D8
:103FE00001468546E30FD7CA89466309D732DA8688
:103FF00011A0CA8613F7770013070703A38FE6FE05
:104000008D831389F6FFF5F793F719006384073260
:10401000930700036300F732F916A30FF9FEB30C00
:10402000DB40368949B97246136F0F011C421106F5
:1040300032CE05473DB7E314055E93778F00639159
:104040000762F24693877600E19B984383A8470076
:10405000A1073AD646DC3ECEB707011C938707BEC0
:10406000E2553709008003AC070083AC47001349D1
:10407000F9FFB25733F925013E85CA856286E68687
:104080001AC87ACAEF60B0264243524FE3120500C5
:10409000B257CA853E856286E686EF50F0594243A4
:1040A000524F6357A07E3257E2573A85BE8501468C
:1040B0008146EF5070584243524FE34C052E034661
:1040C000F10693077004E3C7B71537F9001C13090D
:1040D000894402D29379FFF70D4C8D4C014DE305D5
:1040E00006C0C5B6E31B0554F245136F0F019C4192
:1040F00091052ECEE3D007BA1307D002B307F040E4
:10410000A307E1061306D00241BE136F8F0075B4FA
:10411000834D04000504E3811D4F93860DFD014D81
:10412000E3E0D5AA93172D0005043E9D834DF4FFCF
:10413000060D369D93860DFDE3E4D5A893172D005B
:1041400005043E9D834DF4FF060D369D93860DFDBF
:10415000E3FAD5FCB5B4136F0F0885B4136F1F00D5
:10416000A9BCE31C08A4054513080002B9B4F24534
:1041700093760F019C4191052ECE0147E39306DE15
:1041800093760F04E38F06DCC207C183D9BBE31229
:10419000054CF24893770F0103A70800910846CE1B
:1041A000639C074A137F0F04E30C0F06825723100A
:1041B000F70069BAE3170548B7F7001C9387C746AD
:1041C000BEC2C5B3136F0F04CDBA7247F2481C4389
:1041D0006177134707832318E10637F7001C13079D
:1041E000C7469108BAC2136F2F0046CE0947930DF8
:1041F000800785BB724693760F011C42110632CEB2
:104200000547BDDEB9BBF245A307010603A90500BA
:1042100093894500630C094AFD576305FD7C6A8656
:1042200081454A851AC87ACAEF20905B4243524FB3
:10423000E30B051EB30C254113CCFCFF0346F1062E
:10424000135CFC414ECE02D233FC8C01FA89014D45
:10425000E30C06A8BDB47001D6855E8546CC7ACA4B
:10426000EFE07FDAE248524FE31305CADA475A8398
:104270003DBED6566344D0344A4737E6001C130689
:1042800046232320C3008507054605072322C300D4
:104290003ECB3AC91D462103635CE6007001D6851A
:1042A0005E85EFE05FD6E31405C6D656DA475A833B
:1042B00081E6A258638C0876D2554A474256AE979B
:1042C00005072320C3002322B3003ECB3AC91D4675
:1042D0002103635DE6007001D6855E85EFE0BFD205
:1042E000E31705C2D656DA474A475A83E3CB061886
:1042F000A2580507C69723202301232213013ECB92
:104300003AC99D46E3D7E6B67001D6855E85EFE0F3
:104310009FCFE31E05BEDA475A83A9BE96465A8947
:1043200013F7F7003697034707007D192300E900CC
:104330009183FDF7B30C2B41BDBA130750066356AA
:10434000B715B25662573685BA85014681461AC8F6
:104350003ECAEF50B01C4243D24701FD4A47B7E680
:10436000001C9386462385072320D3000507854636
:104370002322D3003ECB3AC99D47210363C0E732D5
:10438000D657225763DAE72ADA47D2584A47C25546
:10439000C69705072320B300232213013ECB3AC959
:1043A0009D46210363C6E66222571309F7FFE353D4
:1043B00020ADC1464A4763D1264BC14C9D4D21A03B
:1043C000411963DB2C49C107050723204301232240
:1043D00093013ECB3AC92103E3D4EDFE7001D685AB
:1043E0005E85EFE05FC2E31405B2DA474A475A83BD
:1043F000C1BFB3868441E351D09E41464A476358CA
:10440000D604A2C041489D48368421A04114635E71
:104410008802C107050723204301232203013ECB65
:104420003AC92103E3D4E8FE7001D6855E8542C413
:1044300046CCEFE05FBD2248E248E31A05AC4114E8
:10444000DA474A475A83E34688FCA2860644B69771
:1044500005072322D300232043013ECB3AC99D46C2
:104460002103E3DBE6967001D6855E85EFE0BFB9F8
:10447000E31F05A8DA475A8385B27001D6855E85A9
:10448000EFE07FB8E30C05A659B4CA48A25505472A
:1044900023202301938D1700930C8300938718002A
:1044A0006356B72405472322E3006ECB3EC91D4760
:1044B0006349F7365256C25613871700B29D23A0A0
:1044C000DC0023A2CC006ECB3AC99D47A10C63C58A
:1044D000E736B256E257A25813838C001388F8FFD0
:1044E0003685BE8501469307170081463E8D1AC862
:1044F0003ACC3ECA42C4EF50700242436247D247B0
:10450000224835C90509C29D23A02C0123A20C0114
:104510006ECB6AC99D4763CCA71993870C01130D15
:1045200027009A8C3E83F255F818B387B50123A073
:10453000EC0023A2BC003ECB6AC91D47E35CA793F5
:10454000E1B37001D6855E85EFE0FFABE311059C1A
:104550005A836FF0EFE37001D6855E857ACAEFE08B
:104560009FAA524FE315059ADA475A8395B0814CBA
:104570005A896FF04FF4E35800FB4147E3530705B6
:1045800022D241491D4D428429A041148507635D13
:104590008940C10D23A04C0123A22C016ECB3EC942
:1045A000A10CE354FDFE7001D6855E85EFE0BFA54A
:1045B000E31F0594DA4DCA47DA8CC1BF925C2257DB
:1045C00063539701BA8C635F90014A47E6970507EA
:1045D00023202301232293013ECB3AC99D46210388
:1045E00063C1E65E13C7FCFF7D879258B3FCEC0005
:1045F000B38C984163519017C1464A4763D89613CC
:10460000C14D1D4D21A0C11C63D29D13C1070507DB
:10461000232043012322B3013ECB3AC92103E354B3
:10462000EDFE7001D6855E85EFE0FF9DE311058EFE
:10463000DA474A475A83C1BF93F71900E39607D474
:10464000DA476FF03F837001D6855E85EFE0BF9B50
:10465000E31F058ADA4759B882550CC36FF00FCFB4
:10466000724688081C421307460094433ACEB6C8E7
:10467000D443B6CA9847BACCDC471AC87ACABECE69
:10468000EF6040632AD62EDC4243524FF1B2C2079C
:10469000C1831DB2C207C1876FF08FDF7001D6855D
:1046A0005E85EFE05F96E31405865A83D1B9700109
:1046B000D6855E85EFE03F95E31B0584CA48DA4D59
:1046C000138D18001303810CDA8CB1BD99476A8CE5
:1046D00063ECA73537F9001C4ECEE28CFA8901460F
:1046E000014D02D2130909486FF00FE093F619004B
:1046F000E39A06DA2322E3006ECB3EC91D47E34866
:10470000F7FA138D2800410339BD7001D6855E8507
:1047100046CC7ACAEFE03F8FE248524F631905FE5C
:104720000346F106DA475A836FF04FE6E69705072E
:1047300023204301232293013ECB3AC99D46210306
:1047400063DBE6007001D6855E85EFE0DF8B6310EA
:1047500005FCDA475A835657A258634A170993F65D
:104760001900D1E6A25892553387E840B386B84085
:10477000BA8C63D3E600B68C63519003CA46925854
:10478000E6974699850623202301232293013ECBF9
:1047900036C91D4621036348D64613C9FCFF135989
:1047A000F94133F92C0133092741635520EDC14606
:1047B0004A4763D3260BC14C9D4D21A0411963DDAF
:1047C0002C09C107050723204301232293013ECB77
:1047D0003AC92103E3D4EDFE7001D6855E85EFE092
:1047E0009F82631605F2DA474A475A83C1BFD25502
:1047F000CA464256AE9785062320C3002322B30043
:104800003ECB36C91D462103E35ED6F47001D68542
:104810005E85EFE04FFF631C05EE5657DA475A837B
:1048200091B77001D6855E85EFE0EFFD631105EE6F
:10483000DA4DCA47DA8CBDB97001D6855E85EFE0E6
:104840008FFC631605ECDA4D4A47DA8C59B1854680
:10485000631CD7F86FF04FC52320430123222301A7
:10486000CA9705073ECB3AC99D4663D4E6E069BCCA
:104870005A89A94633F7D702B3D7D7027D19130750
:1048800007032300E900FDF7B30C2B416FF0AFC223
:10489000B25762573E883E864285BA86BA851AC8A4
:1048A0007ACAEF60C0244243524F6315054CFD574E
:1048B00013FCFDFD6307FD36930770046309FC1CC0
:1048C000625E82C093690F1063590E00B7070080C3
:1048D0001306D00233CEC701B2C093076006638CC3
:1048E000FD2E930760046388FD149307500432572C
:1048F0006309FC1C3A85DC187286AA859308410876
:10490000130881076A8789465E851AC872CC7ACAFD
:10491000EF00B016930770062A894243624E524F49
:104920006397FD5093771F00B30CA5016381073493
:10493000B257F2853E85014681461AC87ACAEF50C1
:10494000E03DE6874243524F11CD9A4763FC970101
:1049500093060003138717003AC32380D7009A47B2
:10496000E3EA97FFB38727413ED4D6571307700475
:104970003ED2630DEC18930760066390FD1A125740
:104980006353E04463190D42137F1F0063150F4208
:10499000125CE28C8647639407200346F106014DC2
:1049A000630406B46FF0EFB1228812543E8D9387F2
:1049B0008C00C29D23A04C0123A20C016ECB6AC9BE
:1049C0001D47E346A7CF050D13838700BE8CA1BE0C
:1049D0007001D6855E85EFE00FE3631A05D2DA47F2
:1049E0005A83D9B24A851AC87ACAEFD02F99134C84
:1049F000F5FF524F0346F106135CFC414ECE02D246
:104A0000AA8C337C8501FA89014D4243630E06ACC2
:104A10006FF02FAB37F9001C1309C9446FF06FEB2F
:104A2000025610C36FF08F92194C6DB113F7190035
:104A3000630207C451B0325772863A85AA8593083B
:104A4000410813088107DC186A878D465E851AC8FD
:104A500072CC7ACAEF0070024243624E524F2A89EA
:104A6000EA8F93076004B30CF901E393FDEC03476D
:104A70000900930700036300F702D65FFE9C4DBD5B
:104A80007001D6855E85EFE00FD86FF04FC8E3194F
:104A90000DE2054D35B53257F2853A85014681461E
:104AA0001AC872CC7ACA7EC6EF5040274243624E83
:104AB000524FB24F79D18547B38FF741FEDAFE9C52
:104AC00085BD930F1D003A8572867E87AA8593085F
:104AD000410813088107DC1889465E851AC872CC24
:104AE0007ACA7EC6EF0060794243624E524FB24F9F
:104AF0002A8993077004639EFD3093771F00B5F3F6
:104B00009A475657B38727413AD23ED49258F55721
:104B100063C4F80063501D07F91D12579307F7FF90
:104B20006E87BEDA230EE10663CD07221307B002BB
:104B3000A30EE1062547634FF71A93870703130770
:104B40000003A30FF106230FE1061C01F8183387B9
:104B5000E740A2583ADE8547B30C170163D1172509
:104B6000D25502D2AE9C13CCFCFF135CFC4133FC4B
:104B70008C010DB52257925763C7E70C137F1F00B6
:104B800063070F1C9258D255930D7006B38CB80072
:104B900013CCFCFF135CFC4133FC8C01E5BB930799
:104BA000D002A307F1061306D002014D050C6FF0E9
:104BB000AF939307D002A307F1061306D0026FF05C
:104BC0004FD07001D6855E85EFE0EFC3631105B469
:104BD000DA475A8301BC325772863A85AA85930810
:104BE000410813088107DC186A878D465E851AC85C
:104BF00072CC7ACA59252A89B30CA501EA8F42439F
:104C0000624E524FADB57001D6855E85EFE0AFBF05
:104C1000631F05AE5657A258DA473387E8405A83D8
:104C2000ADBE194D71B90346F1064ECE02D26A8C63
:104C3000EA8CFA89014D6309068A6FF08F88FD5767
:104C40003ED06FF08FAD2257D2579258B30CF70079
:104C5000634610011257B38CEC40850C13CCFCFF5B
:104C6000135CFC4133FC8C01930D700625B31A478D
:104C7000D658098F930770043AD446D2E308FCE86B
:104C800069BD4156B30CD04063DEC602C14D1D4D17
:104C900021A0C11C63D89D03C10705072320430140
:104CA0002322B3013ECB3AC92103E354EDFE700148
:104CB000D6855E85EFE02FB5631B05A4DA474A472A
:104CC0005A83C1BFE697050723204301232293019E
:104CD0003ECB3AC99D46210363DCE6E07001D685F0
:104CE0005E85EFE04FB2631405A2DA474A475A8364
:104CF0006FF00FE01305B1082A87A945254811A0D8
:104D00003287B3E6B702B3C7B70293860603A30F91
:104D1000D7FE1306F7FFE345F8FE9387070393F7E3
:104D2000F70F7917A30FF6FE6378A70E9306E10736
:104D300019A08347070085060507A38FF6FEE31A2F
:104D4000A7FE7C01918F9305E107AE9701B513CCC7
:104D5000F7FF135CFC4133FC8701BE8C930D70069A
:104D600015B9925885471307D002B3871741A30E90
:104D7000E106C9B39307700463C0B70737F9001C95
:104D8000130909450346F10602D29379FFF70D4C4A
:104D90008D4C014D19E26FE03FF56FE09FF2137FFC
:104DA0001F007AD2E31E0FDA13CCFCFF135CFC4128
:104DB00033FC8C01C5B69257D258B38C1701EA9CCC
:104DC000E5B79A87FDB6631E0D00137F1F00631AB7
:104DD0000F00054C854C7DBE37F9001C1309494571
:104DE00055B7D255938C1500EA9C13CCFCFF135C8D
:104DF000FC4133FC8C0179BEF24703AD07009107FB
:104E000063450D003ECE6FE05FDB7D5D3ECE6FE023
:104E1000DFDAB30CF90129BE9307E10705BBA3074D
:104E200001076FF08FA1A30701076FE0FFE4EA8F8E
:104E3000C9B1A30701076FF02F96A30701076FF011
:104E4000AFAAA30701076FF02FB7A30701076FE011
:104E5000DFE0A30701076FF0CFB3B2862E86AA85E5
:104E600003A5011A6FE01FC383D7C500130101B862
:104E700003AE450603D3E50083A8C50103A8450298
:104E8000F59B13070040232C8146231AF1002E8442
:104E90009C182C00232A914623282147232E1146B3
:104EA0002A89F2D6231B610046D242D63EC43ECCAC
:104EB0003AC83ACE02D0EFE0FFBDAA84635905029A
:104EC0008357410193F7070499C78357C40093E7B9
:104ED00007042316F4008320C14703248147268555
:104EE00003290147832441471301014882802C0094
:104EF0004A85EF10603D69D5FD54D9B783A7011AE3
:104F0000AE868C472A863E856FE0DFB8B2862E8655
:104F10000C456FE03FB8411183A7011A22C426C295
:104F200006C6AA842E8499C3985F51CB0317C40088
:104F300093170701C18393F687009DC2144895CE4D
:104F400013F7170039CB5C4823240400B307F04063
:104F50001CCC0145B1CAB240224492444101828036
:104F600093F60701C9C6918BB9EF14489367870080
:104F70002316F400C207C183E1F613F707281306CE
:104F80000020E30FC7FAA2852685EF10107583571E
:104F9000C400144813F717005DF7898B014791E3AC
:104FA000584818C40145C5FA8317C40013F7070809
:104FB0005DD393E707042316F4007D5569BF3E8552
:104FC000EF10805AA5B70C5881CD9307040463876E
:104FD000F5002685EF10007C0317C4002328040287
:104FE00014481377B7FD2322040014C041B7A54726
:104FF0009CC0136707042316E4007D55A9BF03A7CF
:10500000C11983278714A1C3D8437D48634DE804A1
:10501000131827001DC1338307012324C30883A865
:10502000871805463316E600B3E8C80023A417190D
:105030002324D3108946630DD5000507D8C3C29732
:105040008CC7014582809307C7142324F7146DBFD2
:1050500083A6C7180507558E23A6C718D8C3C297BD
:105060008CC7014582807D558280797152CC03AA1C
:10507000C1194AD003298A144ECE56CA5AC85EC6F0
:1050800006D622D426D262C42A8BAE8B854AFD591D
:1050900063040902832449001384F4FF634E04006F
:1050A0008A04CA9463860B0283A744106382770341
:1050B0007D14F114E31834FFB25022549254025973
:1050C000F249624AD24A424BB24B224C456182803D
:1050D00083274900D840FD176388870223A2040074
:1050E00061DB83278918B3968A00F58F032C49006A
:1050F00099EF02970327490083278A1463148701D5
:10510000E308F9FA3E8969B723228900D1BF8327D2
:10511000C91883A54408FD8E81E65A850297D9BF38
:105120002E850297C1BF01114AC81C4903A9050178
:1051300006CE22CC26CA4EC652C456C263CD271311
:105140007D19931E290013844501B309D401130A64
:105150004501D29E83A7090083A40E008507B3D41E
:10516000F402C9C4C168228E528381468147FD186A
:10517000110E0326CEFF03270300337816013308F0
:105180009802369893560601B38696023376180134
:10519000135F0801918FFA96337617013E96935765
:1051A000070133F71601998F13570641BA971397E2
:1051B0000701337616011103598E232EC3FEC182D7
:1051C000C187E3F7C9FB83A70E008DE39387CEFF6A
:1051D000637CFA0003A7CEFF01C739A0984309E713
:1051E000F1177D19E36CFAFE23282501AA8AEF2026
:1051F000E04F6348050641688504D28581477D18E4
:1052000011040326C4FF9841B3760601958FB37647
:105210000701BE96418293570701918F13D706412C
:10522000BA9713970701B3F606019105D98E23AEFD
:10523000D5FEC187E3F689FC1317290052971C435A
:105240008DE39307C7FF637CFA000327C7FF01C7FD
:1052500039A0984309E7F1177D19E36CFAFE23A8FA
:105260002A012685F2406244D2444249B249224A88
:10527000924A056182800145F5B7717103230504E7
:1052800022D526D34AD14ECF52CD56CB66C36AC162
:1052900006D75AC95EC762C5EEDE3EC846C42A8438
:1052A000AE893289368DBA8CC28A2E8AB284630F57
:1052B000030078418547B397E7002322E3002324C6
:1052C000F3009A85EF10506F232004044A8B634A41
:1052D0000934B707F07F23A00A003377FB0063028D
:1052E000F7364E85A68501468146CE8BEF401023CA
:1052F00029E1424785471CC3A2476389073AB7E7BC
:10530000001CA246938757239CC2B7E7001C938DCD
:105310004723BA502A546E859A540A59FA496A4A60
:10532000DA4A4A4BBA4B2A4C9A4C0A4DF65D4D610B
:105330008280B810F4102686CE852285EF20406347
:10534000935A4B012A8963960A34265CB65A93070E
:105350000002E29A13852A43E3D3A70A93070004C5
:10536000898F13852A41331BFB0033D5A900336590
:10537000AB00EF50B00CB70710FE0547AA8BBE95E7
:10538000FD1A3ADCB706011C938686BE9042D442D1
:105390005E85EF502005B707011C938707BF904338
:1053A000D443EF401035B707011C938787BF904364
:1053B000D443EF30F0482A8B5685AE8BEF50607D9A
:1053C000B707011C938707C09043D443EF40703266
:1053D0002A86AE865A85DE85EF3090462A8BAE8BC4
:1053E000EF50A0742AC6014681465A85DE85EF40FB
:1053F000B024635E05003245EF50A0795A86DE8600
:10540000EF40D011B2473335A000898F3EC6054723
:105410003AD43247D94763E6E702B24637F7001C71
:10542000939736001307077CBA978843CC434E8680
:10543000A686EF405015635AA07C324702D47D17F0
:105440003AC6B30A5C41938BFAFF02CC63D70B00D8
:10545000854DB38D5D416ECC814BB24763C8076407
:10546000BE9B3ED002CEA54763E7A7259547854A58
:1054700063D4A701711D814A8D47E308FD20E3D85D
:10548000A7179147E306FD02054795473AD2E31473
:10549000FD1632476697930717003AD63ECA3E86F6
:1054A0006343F000054623220404DD47524B814547
:1054B00063D0C72205479147860793864701BA857F
:1054C0000507E37BD6FE6CC02285EF10904828C00C
:1054D000B947AA8D63F66721B65763CD0742B24636
:1054E00039476349D74237F7001C939736001307B3
:1054F000077CBA9703AB070083AB470063C30C7C00
:105500005A86DE86A6855285EF400020EF50E06186
:10551000AA89EF5000685A86DE86EF40901D2A86E1
:10552000AE865285A685EF40F06B938709035247FC
:105530002380FD0085472A86AE8693841D0063077D
:10554000F708370C011C130C0CC103260C00832632
:105550004C00EF40101A014681462A8AAE8AEF407D
:10556000E07B630705625247938C2D00338DED007D
:1055700005A003260C0083264C00850CEF40701715
:10558000014681462A8AAE8AEF404079630205606F
:105590005A86DE865285D685EF400017EF50E058D8
:1055A000AA89EF50005F5A86DE86EF4090142A8663
:1055B000AE865285D685EF40F06293870903A38FAC
:1055C000FCFE2A86AE86E684E3159DFB3285B68511
:1055D000EF3010275A86DE862A8AAE8AEF40A07AFC
:1055E000634EA0005A86DE865285D685EF40007352
:1055F0006310055A93F91900638C095803CCF4FF22
:105600009306900331A0E385ED1A034CF7FFBA84AB
:105610001387F4FFE309DCFE93071C002300F70067
:1056200085ABB704008093C4F4FF8547B3F424012D
:1056300023A0FA00268BB707F07F3377FB00E31235
:10564000F7CA8967C2469387F7709CC263130A0240
:105650001317CB0019EFA247E388072AB7F7001CFE
:10566000938D0779B7F7001C93878779A2469CC270
:105670004DB1A24791E7B7F7001C938DC77951B997
:10568000B7F7001C938DC779B7F7001C9387F7799C
:10569000F1BFB7051000FD15370CF03FE58DB3E500
:1056A0008501938A1AC0265C02DCE9B9B7E7001CC1
:1056B000938D4723B9B985477D577D5B854A014D59
:1056C0003ED23ACA814C5247232204043AD681453D
:1056D0002285EF10102828C0B947AA8DE3EE67DFB6
:1056E000E38C0ADE3247CEC0A6C26354E062B24603
:1056F0003D8BB7F7001C0E0713DC46409387077CF1
:10570000BA9713770C0103A8070083A84700630723
:10571000077EB707011C9387078B9053D4534E85A0
:10572000A68542C246C0EF30307E12488248AA8A1F
:105730002E8B137CFC000D4A63070C02B704011C7E
:105740009384048B93771C004285135C1C40C685B0
:1057500081CB9040D440050AEF40A0792A88AE88DA
:10576000A104E3110CFE4286C6865685DA85EF3029
:10577000B079AA89AE84A25789CFB707011C938755
:1057800087C09043D4434E85A685EF40E06AE34F3F
:1057900005065285EF50E03F4E86A686EF406075C5
:1057A000B707011C938787C19043D443B70AC0FC55
:1057B000EF30100952472A8AAE9A63070768B2474A
:1057C0005247BEC83ADEA6854E85EF5000362A8B7A
:1057D000EF50203C2A86AE864E85A685EF4090404D
:1057E000F25737F7001C9386F7FF8E061307077CE6
:1057F000369710435443125793070B032AD82EDAD7
:1058000093841D0013FCF70F630B07703707011C0F
:10581000130787C208434C43EF30106F5286D68679
:10582000EF40503C4256D25623808D012A8AAE8AE0
:10583000EF406055E34DA00AB707011C938787C06E
:105840004256D2568843CC43EF40D0392A86AE86A2
:105850005285D685EF402053E34EA0087257854706
:105860006308F76A370C011C130C0CC183290C0068
:10587000032B4C003388ED004E87DECA4ADEA2C4FB
:10588000EACCE6CECE8B42844259D259BA8C5A8D9C
:105890000DA0B707011C938787C08843CC43EF4016
:1058A00070345286D686EF402059634B057E638C58
:1058B00084645E86DA865285D685EF40806366868C
:1058C000EA862A8AAE8A4A85CE85EF408062AE8912
:1058D0002A89EF5080252A8CEF50A02B2A86AE868D
:1058E0004A85CE85130C0C03EF40D02F8504137C22
:1058F000FC0F5286D686A38F84FF2A89AE89EF409B
:10590000A0534A86CE86E35605F846477259264488
:105910003AC6BDAC12576304071A0547635BA73745
:10592000D2477247138BF7FF63436759330B6741C5
:10593000E2475247B38AE74063460700BE8ABA97F8
:10594000BA9B3ECC85452285EF109027AA89635EDD
:105950005001635C7001D68763C05B2F6247B38AD6
:10596000FA401D8F3ACCB38BFB40F24791CF1257D0
:1059700063080752338C674163120B2CCA85628619
:105980002285EF10B03C2A8985452285EF105023EF
:1059900082572A8B639E0722854763DBA72705452D
:1059A0005E957D89630F052093070002898F11475B
:1059B0006352F776F1473385A740E247AA9AAA9740
:1059C0003ECCAA9BE2476340F01063587001DA8531
:1059D0005E862285EF10B0432A8B2257631C070E88
:1059E0005247635BE03E9257638D0710634C50272C
:1059F0000257CE8C6319073852479387FDFFBA9739
:105A0000137A1A00EE8B3ECC52CA6ECEDA854A85E6
:105A1000EFF06FF12A8ACE854A85EF10304DAA8AC1
:105A20006686DA852285EF10F04F5C45AA8D130C4F
:105A30000A0363960718AA854A85EF10304BAA849B
:105A4000EE852285EF10407733E7A40101E7D247C6
:105A50006384073663C60A46B3EAAA0163950A005F
:105A60005247630F0744138A1B00634F9054E28729
:105A70002380FB00E24763857757CA858146294624
:105A80002285EF1080742A8981462946CE85228599
:105A900063819913EF106073E685AA8981462946D0
:105AA0002285EF108072AA8CD28B8DB76247B247E5
:105AB00002D01D8F3ACC3307F0403ACE6DB2724B14
:105AC000E24A814969B5CA853E862285EF103034A5
:105AD0002A89E5BDDA854A85EF105041E35205F089
:105AE000CA85814629462285EF10206EB24712579B
:105AF000FD173EC62A896312075CB2576353F05EF6
:105B00003ECAEE84524A21A0EF10206C2A89DA8521
:105B10004A85EFF04FE1130C0503E2878504A38F5C
:105B2000F4FEB387B44181462946CA852285E3CD78
:105B300047FD014ACA8505462285EF10502DDA85BA
:105B40002A89EF10B03A03C7F4FF6354A0129306FA
:105B5000900331A0638EFD3203C7F7FFBE849387A5
:105B6000F4FFE309D7FE05072380E700DA852285E5
:105B7000EF108064638E090063080A0063063A012F
:105B8000D2852285EF104063CE852285EF10C0625A
:105B9000CA852285EF1040623247C246930717003C
:105BA000238004009CC2A247638507F684C36FF07C
:105BB0004FF6EF108061AA89AA8CD28B81BD8544F3
:105BC00041B571456247AA9A2A973ACCAA9BDDBB98
:105BD0003E86AA852285EF10701785472A8B63DAE7
:105BE000A71D02D083270B018D078A07DA97C843C8
:105BF000EF10C071930700023385A74055B3338B74
:105C0000A740339569016FF0CFF602D46FF07F8320
:105C1000E3170AD89396C400814791EA3707F07FCB
:105C2000F98C91C46247850B05073ACC854702572A
:105C30003ED0E30607D67DB7DE870DB35A86CE8504
:105C40002285EF10B0104A86AA85AA892285EF1016
:105C5000C0782A8BCA852285EF1000565A89E30541
:105C60000CD229BBCE8556862285EF10501AAA8900
:105C700041B309E5137C1C00E31B0CEC9306000305
:105C800021A003C7E4FFBE849387F4FFE30BD7FE94
:105C9000F1BD62579387374309E72657930760039F
:105CA000998FE24ABE9B3387FA00724B3ACC59B9BE
:105CB00085473ED26351901766D666CA66866FF0F6
:105CC0008FFE5247E34EE082D247639D071AB70723
:105CD000011C938707C29043D4435A85DE85EF4069
:105CE00040215286A686EF40000A014B8149635B42
:105CF000050E324793071003050793841D00238088
:105D0000FD003AC6DA852285EF10004BE39E09E6D6
:105D100041B53247630B072CB30AE04013F7FA0092
:105D2000B7F7001C0E079387077CBA979043D443BC
:105D30004E85A685EF40E01B93DA4A40AA89AE84DF
:105D400063850A2A370B011C130B0B8BAA862E873F
:105D50000146094A93F71A003685BA8593DA1A4044
:105D600099CB03260B0083264B00050AEF406018F1
:105D7000AA862E870546210BE39E0AFCE30D069EAC
:105D8000B689BA84CDBA83A549002285EF10603C5C
:105D900003A60901AA8409069385C9000A063105EC
:105DA000EFB09F820546A6852285EF105006AA8C8B
:105DB000A1B1E3010AE635B593079003F24D938450
:105DC0001B006304FC1263545001130C1A034E8A27
:105DD00023808B01E68959BB8947E3D6A7C1D24707
:105DE0006388072093CCFCFF66C6EE8421BF8947F9
:105DF00002D2E301FDEC2322040481452285EF1049
:105E000040357D578547AA8D28C03AD63ED23ACA3A
:105E1000814C6FF06FEC8547054B3ECA854C6FF0A7
:105E20009F8A5285EF40F0564E86A686EF40600C62
:105E3000B707011C938787C19043D443B70AC0FCBE
:105E4000EF3000202A8AAE9AB707011C938707C259
:105E50009043D4434E85A685EF40C0585286D686DF
:105E60002AD82EDAEF3030726348A00AB7070080D4
:105E7000B3CA57014255D2555286D686EF30D07BF1
:105E800063580508014B8149B1BF02D26FF06FE042
:105E900032479307100305073AC62380FD00F9B186
:105EA0007246CA852285EF10606A2A89F1BC724762
:105EB0005ACEB307EB400257014B3E973AD08DBC08
:105EC000A687F24D93841B00E353F0F0CA85054684
:105ED0002285EF10C073DA852A89EF1030016357ED
:105EE000A01C93079003E312FCEE930790034E8AE5
:105EF0002380FB00E6891307900391B9CE8A268B95
:105F0000094A6FF07F83D64B72592644664DF64C92
:105F1000064A96446FF04FDC014B8149D9BB52854C
:105F2000D685EF30107D7257AAC4AEC623808D018E
:105F300085476307F704F2574255D255B389FD00F0
:105F4000DE8A3707011C130707C110435443850439
:105F5000EF30307AAE8B2A8BEF40303D2A8AEF400B
:105F600050432A86AE865A85DE85130A0A03EF401F
:105F70006047A38F44FFE39634FD2AD82EDAD68BF0
:105F8000B709011C938989C203A6090083A64900A9
:105F90002645B645EF30C00A4256D256EF30D0699A
:105FA0006355050CC64703CCF4FF3EC66FF04FE5C2
:105FB000930700032380FD00B24703CCF4FF85075D
:105FC0003EC66E876FF04FE593079003D284F24D83
:105FD000E30DFCF0050C4E8A23808B01E68979B62F
:105FE000D284F24D4E8AE689B1B6094A6FF0AFF815
:105FF000DA85814615462285EF10201D2A8BAA8559
:106000004A85EF10A06EE346A0CEE9BB5247E30AF3
:1060100007E0B257E35EF0EE370C011C130C0CC125
:1060200003260C0083264C004E85A685EF30706C4D
:10603000AA8913051A00AE84EF40B0354E86A686B5
:10604000EF30306BB707011C938787C1324790430D
:10605000D4437D17BAC8EF20B07EB257B70AC0FC50
:106060002A8AAE9A3EDE6FF00FF62646B64603A5A4
:10607000090083A54900EF40E036D2564256EF3082
:106080009050930600036344A00059B5BA8483C7B7
:10609000F4FF1387F4FFE38BD7FE46473AC6CDBC27
:1060A000C647725926443EC66FF08FD5E31105D21C
:1060B00093771C00E38D07D02DB5CE858146294608
:1060C0002285EF108010B257AA896356F0003ECAAD
:1060D000E350509341BE894763C2A703B2573ECAFB
:1060E000C5BF894763CFA70132573ACA19BCC64713
:1060F0003EC679BC46473AC66FF08FD032573ACA8F
:10610000F9B9B2573ECAE1B9B7F7001C938D0779C8
:106110006FF02FA0E388E78A9307C0033385A74079
:1061200055B48397C500011113970701418322CC11
:106130004EC606CE26CA4AC8937687002E84AA8900
:10614000DDE6056713070780D98FD8412396F50050
:106150006359E00E18546DCBC207C18383A40900B4
:106160009396370123A009004C4C63CD0614854655
:1061700001464E850297FD576302F50E8357C40012
:1061800018544C4C918B99C754401C58158D99C389
:106190005C5C1D8D2A8681464E850297FD57630CF7
:1061A000F50C8357C4007D771307F77FF98FC2077B
:1061B0001848C1872316F4002322040018C09396C0
:1061C000370163C7060E0C5823A09900B5CD93077D
:1061D00004046384F5004E85752B23280402F240E5
:1061E0006244D2444249B24901450561828003A913
:1061F0000501630B090484410D8B23A02501B384A1
:106200002441814731CB1CC46346900035A82A99AC
:10621000635C90025C504C4CA6864A864E85829701
:10622000898CE346A0FE8357C400F24093E707043D
:106230002316F4006244D2444249B2497D550561B7
:106240008280D85DE348E0F00145F2406244D244E8
:106250004249B24905618280DC4975B783A70900CC
:1062600091DF75476385E7005947E39EE7FA23A06E
:1062700099000145D9BF83A60900F54763ECD70211
:10628000B70740208507B3D7D700858B0317C40015
:1062900085C7FD7710489387F77FF98F2316F400A1
:1062A0002322040010C013973701E35E07F081FE3C
:1062B00028C811BF0317C400936707042316F4000E
:1062C0007D5561B728487DBD011122CC06CE2A84B8
:1062D00019C11C5D89CB8397C50081EFF2406244F0
